:020000040000fa
:080000000002040000000000f2
:020000040000fa
:04000800a80200004a
:020000040000fa
:04000c00a802000046
:020000040000fa
:04001000a802000042
:020000040000fa
:04001400a80200003e
:020000040000fa
:04001800a80200003a
:020000040000fa
:04001c00a802000036
:020000040000fa
:04002000a802000032
:020000040000fa
:04002400a80200002e
:020000040000fa
:04002800a80200002a
:020000040000fa
:04002c00a802000026
:020000040000fa
:04003000a802000022
:020000040000fa
:04003400a80200001e
:020000040000fa
:04003800c00a0000fa
:020000040000fa
:04003c00a802000016
:020000040000fa
:04004000a802000012
:020000040000fa
:04004400a80200000e
:020000040000fa
:04004800a80200000a
:020000040000fa
:04004c00a802000006
:020000040000fa
:04005000a802000002
:020000040000fa
:04005400a8020000fe
:020000040000fa
:04005800a8020000fa
:020000040000fa
:04005c00a8020000f6
:020000040000fa
:04006000a8020000f2
:020000040000fa
:04006400a8020000ee
:020000040000fa
:04006800a8020000ea
:020000040000fa
:04006c00a8020000e6
:020000040000fa
:04007000a8020000e2
:020000040000fa
:04007400a8020000de
:020000040000fa
:04007800a8020000da
:020000040000fa
:04007c00a8020000d6
:020000040000fa
:04008000a8020000d2
:020000040000fa
:04008400a8020000ce
:020000040000fa
:04008800a8020000ca
:020000040000fa
:04008c00a8020000c6
:020000040000fa
:04009000a8020000c2
:020000040000fa
:04009400a8020000be
:020000040000fa
:04009800a8020000ba
:020000040000fa
:04009c00a8020000b6
:020000040000fa
:0400a000a8020000b2
:020000040000fa
:0400a400a8020000ae
:020000040000fa
:0400a800a8020000aa
:020000040000fa
:0400ac00a8020000a6
:020000040000fa
:0400b000a8020000a2
:020000040000fa
:0400b400a80200009e
:020000040000fa
:0400b800a80200009a
:020000040000fa
:0400bc00a802000096
:020000040000fa
:0400c000a802000092
:020000040000fa
:0400c400a80200008e
:020000040000fa
:0400c800a80200008a
:020000040000fa
:0400cc00a802000086
:020000040000fa
:0400d000a802000082
:020000040000fa
:0400d400a80200007e
:020000040000fa
:0400d800a80200007a
:020000040000fa
:0400dc00a802000076
:020000040000fa
:0400e000a802000072
:020000040000fa
:0400e400a80200006e
:020000040000fa
:0400e800a80200006a
:020000040000fa
:0400ec00a802000066
:020000040000fa
:0400f000a802000062
:020000040000fa
:0400f400a80200005e
:020000040000fa
:0400f800a80200005a
:020000040000fa
:0400fc00a802000056
:020000040000fa
:04010000a802000051
:020000040000fa
:04010400a80200004d
:020000040000fa
:04010800a802000049
:020000040000fa
:04010c00a802000045
:020000040000fa
:04011000a802000041
:020000040000fa
:04011400a80200003d
:020000040000fa
:04011800a802000039
:020000040000fa
:04011c00a802000035
:020000040000fa
:04012000a802000031
:020000040000fa
:04012400a80200002d
:020000040000fa
:04012800a802000029
:020000040000fa
:04012c00a802000025
:020000040000fa
:04013000a802000021
:020000040000fa
:04013400a80200001d
:020000040000fa
:04013800a802000019
:020000040000fa
:04013c00a802000015
:020000040000fa
:04014000a802000011
:020000040000fa
:04014400a80200000d
:020000040000fa
:04014800a802000009
:020000040000fa
:04014c00a802000005
:020000040000fa
:04015000a802000001
:020000040000fa
:04015400a8020000fd
:020000040000fa
:04015800a8020000f9
:020000040000fa
:04015c00a8020000f5
:020000040000fa
:04016000a8020000f1
:020000040000fa
:04016400a8020000ed
:020000040000fa
:04020800a802000048
:020000040000fa
:04020c00a802000044
:020000040000fa
:04021000a802000040
:020000040000fa
:04021400a80200003c
:020000040000fa
:04021800a802000038
:020000040000fa
:04021c00a802000034
:020000040000fa
:04022000a802000030
:020000040000fa
:04022400a80200002c
:020000040000fa
:04022800a802000028
:020000040000fa
:04022c00a802000024
:020000040000fa
:04023000a802000020
:020000040000fa
:04023400a80200001c
:020000040000fa
:04023800a802000018
:020000040000fa
:04023c00a802000014
:020000040000fa
:04024000a802000010
:020000040000fa
:04024400a80200000c
:020000040000fa
:04024800a802000008
:020000040000fa
:04024c00a802000004
:020000040000fa
:04025000a802000000
:020000040000fa
:04025400a8020000fc
:020000040000fa
:04025800a8020000f8
:020000040000fa
:04025c00a8020000f4
:020000040000fa
:04026000a8020000f0
:020000040000fa
:04026400a8020000ec
:020000040000fa
:04026800a8020000e8
:020000040000fa
:04026c00a8020000e4
:020000040000fa
:04027000a8020000e0
:020000040000fa
:04027400a8020000dc
:020000040000fa
:04027800a8020000d8
:020000040000fa
:04027c00a8020000d4
:020000040000fa
:04028000a8020000d0
:020000040000fa
:04028400a8020000cc
:020000040000fa
:04028800a8020000c8
:020000040000fa
:04028c00a8020000c4
:020000040000fa
:04029000a8020000c0
:020000040000fa
:04029400a8020000bc
:020000040000fa
:04029800a8020000b8
:020000040000fa
:04029c00a8020000b4
:020000040000fa
:0402a000a8020000b0
:020000040000fa
:0402a400a8020000ac
:020000040000fa
:0402a800a8020000a8
:020000040000fa
:0402ac00a8020000a4
:020000040000fa
:0402b000a8020000a0
:020000040000fa
:0402b400a80200009c
:020000040000fa
:0402b800a802000098
:020000040000fa
:0402bc00a802000094
:020000040000fa
:0402c000a802000090
:020000040000fa
:0402c400a80200008c
:020000040000fa
:0402c800a802000088
:020000040000fa
:0402cc00a802000084
:020000040000fa
:0402d000a802000080
:020000040000fa
:0402d400a80200007c
:020000040000fa
:0402d800a802000078
:020000040000fa
:0402dc00a802000074
:020000040000fa
:0402e000a802000070
:020000040000fa
:0402e400a80200006c
:020000040000fa
:0402e800a802000068
:020000040000fa
:0402ec00a802000064
:020000040000fa
:0402f000a802000060
:020000040000fa
:0402f400a80200005c
:020000040000fa
:0402f800a802000058
:020000040000fa
:0402fc00a802000054
:020000040000fa
:04030000a80200004f
:020000040000fa
:04030400a80200004b
:020000040000fa
:04030800a802000047
:020000040000fa
:04030c00a802000043
:020000040000fa
:04031000a80200003f
:020000040000fa
:04031400a80200003b
:020000040000fa
:04031800a802000037
:020000040000fa
:04031c00a802000033
:020000040000fa
:04032000a80200002f
:020000040000fa
:04032400a80200002b
:020000040000fa
:04032800a802000027
:020000040000fa
:04032c00a802000023
:020000040000fa
:04033000a80200001f
:020000040000fa
:04033400a80200001b
:020000040000fa
:04033800a802000017
:020000040000fa
:04033c00a802000013
:020000040000fa
:04034000a80200000f
:020000040000fa
:04034400a80200000b
:020000040000fa
:04034800a802000007
:020000040000fa
:04034c00a802000003
:020000040000fa
:04035000a8020000ff
:020000040000fa
:04035400a8020000fb
:020000040000fa
:04035800a8020000f7
:020000040000fa
:04035c00a8020000f3
:020000040000fa
:04036000a8020000ef
:020000040000fa
:04036400a8020000eb
:020000040000fa
:100400002fc020000e1f24000e01880000000000f5
:10041000000020000000e000020032000001200087
:10042000200288000c000700e0822000010020006c
:1004300011000700000020000000e0000200320070
:100440000000020000000000fe0a020000000000a0
:100450000040da000000fe004440a900c047200030
:100460000000e0000300320000002000a00188002e
:100470004440a80000000600910188008000780038
:100480000000eb0015003700e280400032a0b4000d
:100490009101ba00e280400032a0b4009102ba009b
:1004a000e280400032a0b4000002eb00472bde00e7
:1004b000f507b200602ce10004003a000059eb009f
:1004c0008301e900fdff3e00040037006128e100e0
:1004d000010032000082eb000b00070011c3ba00dc
:1004e0001101ba000604e00003003a000200e00037
:1004f000e5ff3a0000000600f607b200960188000a
:1005000082007800f5ff37003159ba008301e90015
:100510000c0032002159ba008301e90008003200c2
:100520000400e00003003a00e280400032a0b40082
:10053000f5ff370011d9ba008301e900faff3a004c
:100540008100e800e180400032a0b4000000060015
:100550000040da000000fe00800090000101e90088
:10056000c000900000002000028009008018780080
:1005700000000600889fbe008a9fbe008c9fbe00c0
:100580008e1f78004400f800080f20002802880021
:100590003400f8004600f8004800f8004a00f8006f
:1005a0004c00f8004e00f8008a0a2c003a0288003d
:1005b0002304900058028800130490004802880029
:1005c000530590007a028800430590006a02880073
:1005d000811f78000f0778003305900007f02f0087
:1005e0000a38e10004003200270280004700b3000f
:1005f00027028800aa01880063059000030290008a
:10060000630252000000e9000080080007000000bb
:10061000320d7800000000004618c3000480090075
:100620004618c4004218c4001201c4003100cd00b5
:10063000ea0198008e0778004f0078004e00f9001c
:100640004c00f9004a00f9004800f9004600f900a2
:100650003400f9004400f9004f0778004f06be004f
:100660004f05be004f04be0000000600889fbe007c
:100670008a9fbe008c9fbe008e1f78004400f80049
:10068000080f2000280288003400f800811f78003d
:100690000f0778002305900007f02f000a38e100cb
:1006a00004003200270280004700b30027028800c0
:1006b000aa01880003029000d30490000000e90022
:1006c000008008001500000013049000330590001e
:1006d000c3059000320378009a00ca00b80278007f
:1006e000048008000a0000005210c4009b80ca0069
:1006f0008707cd005290c4005290c500ba87cd0044
:100700005390c4008607cd009a00ca005290c500dd
:10071000bb87cd000600ca000900c8003100cd002b
:100720008e0778004f0078003400f9004400f9008b
:100730004f0778004f06be004f05be004f04be00b5
:1007400000000600b0009000400190000000900002
:1007500000800800010000008018eb000019eb0089
:04076000000006008f
:020000040000fa
:1007640000000000ed1c0000c83100003b3900000f
:1007740064320000fa200000c90b00001cfa0000db
:1007840017f10000f1f10000bbf90000bf02000006
:10079400f0060000770200005ff50000c0e30000ef
:1007a4004ad40000c1cd00005ed4000008e8000077
:1007b4001b040000dd20000016360000e03d0000b0
:1007c400a1360000842300003c0b00008ff50000dc
:1007d4008ee800008de6000083ed00001cf80000a8
:1007e400000000007600000055f8000091ea0000c7
:1007f40020dd0000acd60000e4db000082ed000048
:10080400b8070000552300002c380000ea3f000020
:100814004c380000e52300003209000046f00000d7
:1008240000e00000b4db00003ce20000afee00009a
:100834007afa00000d0000000bfd000037f3000001
:10084400b8e7000005e100003fe40000fbf200000f
:10085400620a0000f7230000c93700003b3f000094
:100864006d3700004e22000001060000bdea0000c2
:10087400fed7000000d2000076d80000e9e60000b0
:10088400a1f6000045010000500300004efd0000e9
:100894008af3000038ec0000dcec0000f4f7000000
:1008a400b60b000086220000d3340000dd3b0000bc
:1008b400313400000d1f00001502000075e5000032
:1008c40017d10000fec90000a8d000001ee10000fe
:1008d40092f4000004040000d20a00005a08000048
:1008e40000000000a6f700002ef50000fcfb00004d
:1008f4006e0b0000e21e0000582f000002360000bc
:10090400e92e00008b1a0000ebfd0000f3e000006c
:10091400cfcb000023c400002dcb00007add000003
:100924004af400000c08000024130000c81300005f
:10093400760c0000b2020000b0fc0000bbfe000018
:100944005f090000171900008a270000002e00002c
:100954000228000043150000fff90000b2dd00008a
:1009640093c80000c5c0000037c8000009dc0000bf
:100974009ef50000050d0000c11b0000fb1e0000d9
:1009840048180000c90c0000f5020000f3ff000045
:100994008605000051110000c41d00004c24000015
:1009a40000200000ba0f0000cef600001bdc00009f
:1009b400b4c7000016c00000d4c70000abdc0000c0
:1009c40048f800007e1200001c2400005429000096
:1009d400e02200006f150000ab0700008aff000052
:1009e40000000000e40700007d12000073190000fd
:1009f40072170000710a0000c4f400007cdc0000df
:100a04005fc9000020c20000eac9000023df000023
:100a1400e5fb0000f8170000a22b00003f320000a5
:100a2400b62b0000401c0000a10a000089fd000054
:100a340010f9000041fd0000450600000f0e000003
:100a4400e90e0000e405000037f4000006df0000b2
:100a54009ccd0000c5c6000038ce000013e30000a2
:100a6400000000007d070000250c0000360c00008b
:100a7400a807000035000000aff80000ecf3000008
:100a8400bbf300002df8000095ff000025070000cf
:100a9400020c0000540c0000fd070000a000000040
:100aa40008f9000011f400009ef30000d9f70000db
:100ab4002aff0000cb060000db0b00006f0c0000d7
:100ac400500800000b01000063f900003af4000034
:100ad40085f3000088f70000bffe00006f060000e9
:100ae400b10b0000870c0000a00800007601000094
:100af400bff9000065f400006ff3000039f700004f
:100b040055fe000012060000840b00009b0c000040
:100b1400ee080000e00100001efa000094f400005a
:100b24005cf30000ecf60000ebfd0000b2050000f1
:100b3400530b0000ac0c00003a0900004a0200000c
:100b44007efa0000c6f400004df30000a2f6000097
:100b540081fd000052050000200b0000b90c0000cc
:100b640083090000b3020000dffa0000fbf4000078
:100b740041f300005af6000018fd0000ef040000e5
:100b8400e90a0000c30c0000c90900001c030000ae
:100b940042fb000033f5000039f3000015f60000b5
:100ba400b0fc00008c040000b00a0000c90c000076
:100bb4000d0a000083030000a6fb00006ef5000090
:100bc40035f30000d2f5000049fc000027040000c2
:100bd400730a0000cc0c00004e0a0000ea03000077
:100be4000cfc0000acf5000034f3000093f50000a9
:100bf400e3fb0000c1030000340a0000cb0c00003a
:100c04008c0a00004f04000072fc0000edf50000a7
:100c140036f3000056f500007efb00005a03000086
:100c2400f2090000c70c0000c70a0000b404000069
:100c3400dafc000030f600003cf300001cf5000074
:100c44001bfb0000f2020000ad090000bf0c000015
:100c5400000b00001705000042fd000076f60000be
:100c640046f30000e5f40000b8fa00008902000031
:100c740066090000b40c0000350b00007805000084
:100c8400abfd0000bff6000053f30000b2f4000017
:100c940057fa0000200200001c090000a60c000006
:100ca400670b0000d905000015fe00000af70000dc
:100cb40063f3000081f40000f8f90000b6010000bd
:100cc400cf080000930c0000960b000037060000cc
:100cd4007ffe000058f7000077f3000053f4000093
:100ce4009af900004b010000800800007e0c00000f
:100cf400c20b000094060000eafe0000a8f7000002
:100d04008ef3000029f400003ef90000e100000029
:100d14002f080000650c0000eb0b0000ef0600003c
:100d240055ff0000fbf70000a9f3000002f40000e7
:100d3400e4f8000075000000db070000480c000028
:100d4400100c000048070000c0ff00004ff800002e
:100d5400c7f30000def300008cf800000000000080
:100d64007d070000250c0000360c0000a8070000d9
:100d740035000000aff80000ecf30000bbf3000006
:100d84002df8000095ff000025070000020c00006c
:100d9400540c0000fd070000a000000008f900004a
:100da40011f400009ef30000d9f700002aff0000b0
:100db400cb060000db0b00006f0c000050080000a5
:100dc4000b01000063f900003af4000085f3000011
:100dd40088f70000bffe00006f060000b10b0000a2
:100de400870c0000a008000076010000bff9000095
:100df40065f400006ff3000039f7000055fe0000b1
:100e040012060000840b00009b0c0000ee0800009a
:100e1400e00100001efa000094f400005cf30000fe
:100e2400ecf60000ebfd0000b2050000530b0000df
:100e3400ac0c00003a0900004a0200007efa0000ef
:100e4400c6f400004df30000a2f6000081fd00008e
:100e540052050000200b0000b90c000083090000bb
:100e6400b3020000dffa0000fbf4000041f30000cd
:100e74005af6000018fd0000ef040000e90a000023
:100e8400c30c0000c90900001c03000042fb000061
:100e940033f5000039f3000015f60000b0fc000043
:100ea4008c040000b00a0000c90c00000d0a000008
:100eb40083030000a6fb00006ef5000035f300007c
:100ec400d2f5000049fc000027040000730a00006a
:100ed400cc0c00004e0a0000ea0300000cfc0000e9
:100ee400acf5000034f3000093f50000e3fb0000d0
:100ef400c1030000340a0000cb0c00008c0a00007f
:100f04004f04000072fc0000edf5000036f3000011
:100f140056f500007efb00005a030000f2090000b1
:100f2400c70c0000c70a0000b4040000dafc00008b
:100f340030f600003cf300001cf500001bfb000031
:100f4400f2020000ad090000bf0c0000000b00001d
:100f54001705000042fd000076f6000046f300008d
:100f6400e5f40000b8fa00008902000066090000f8
:100f7400b40c0000350b000078050000abfd000048
:100f8400bff6000053f30000b2f4000057fa00006b
:100f9400200200001c090000a60c0000670b0000e2
:100fa400d905000015fe00000af7000063f30000f5
:100fb40081f40000f8f90000b6010000cf08000039
:100fc400930c0000960b0000370600007ffe000023
:100fd40058f7000077f3000053f400009af900007a
:100fe4004b010000800800007e0c0000c20b0000d2
:100ff40094060000eafe0000a8f700008ef300004b
:1010040029f400003ef90000e10000002f08000070
:10101400650c0000eb0b0000ef06000055ff00001c
:10102400fbf70000a9f3000002f40000e4f800005c
:1010340075000000db070000480c0000100c0000e5
:1010440048070000c0ff00004ff80000c7f300008d
:08105400def300008cf800003f
:020000040000fa
:10105c00004300001a000000020000000000000025
:10106c000800ff001a431c00430000001f00000092
:10107c00093d090000ff0000423d42000042000013
:10108c000008000000020000020000005e270000c3
:10109c00c0d19a005e277c003c00000000000000dc
:1010ac000000000000000000000000000000000034
:1010bc000000000000000000000000000000000024
:1010cc000000000000000000000000000000000014
:1010dc000000000000000000000000000000000004
:1010ec0000000000000000000000000000000000f4
:1010fc0000000000000000000000000000000000e4
:10110c0000000000000000000000000000000000d3
:10111c0000000000000000000000000000000000c3
:10112c0000000000000000000000000000000000b3
:10113c0000000000000000000000000000000000a3
:10114c000000000000000000000000000000000093
:10115c000000000000000000000000000000000083
:10116c000000000000000000000000000000000073
:10117c000000000000000000000000000000000063
:10118c000000000000000000000000000000000053
:10119c000000000000000000000000000000000043
:1011ac000000000000000000000000000000000033
:1011bc000000000000000000000000000000000023
:1011cc000000000000000000000000000000000013
:1011dc000000000000000000000000000000000003
:1011ec000075ee00a5149600079eff0077fb4c00df
:1011fc00fa6bfb0007fe350001d10300f204260058
:10120c0004c60100b2fe2a00fc2b3b002afcb200f3
:10121c00fec601002604f20004d1030035010700cc
:10122c00fe6bfb004cfa7700fb9eff009607a500b7
:10123c001475ee000000000000000000000000002b
:10124c000000000000000000000000000000000092
:10125c000000000000000000000000000000000082
:10126c000000000000000000000000000000000072
:10127c000000000000000000000000000000000062
:10128c000000000000000000000000000000000052
:10129c000000000000000000000000000000000042
:1012ac000000000000000000000000000000000032
:1012bc000000000000000000000000000000000022
:1012cc000000000000000000000000000000000012
:1012dc000000000000000000000000000000000002
:1012ec0000000000000000000000000000000000f2
:1012fc0000000000000000000000000000000000e2
:10130c0000000000000000000000000000000000d1
:10131c0000000000000000000000000000000000c1
:10132c0000000000000000000000000000000000b1
:10133c0000000000000000001a4300000400000040
:10134c00020000000000000000000000004200004d
:10135c00000100000200000000000000000000007e
:10136c000000000000000000000000000000000071
:10137c000000000000000000000000000000000061
:10138c000000000000000000000000000000000051
:10139c000000000000000000000000000000000041
:1013ac000000000000000000000000000000000031
:1013bc000000000000000000000000000000000021
:1013cc000000000000000000000000000000000011
:1013dc000000000000000000000000000000000001
:1013ec0000000000000000000000000000000000f1
:1013fc0000000000000000000000000000000000e1
:10140c0000000000000000000000000000000000d0
:10141c0000000000000000000000000000000000c0
:10142c0000000000000000000000000000000000b0
:10143c0000000000000000000000000000000000a0
:10144c000000000000000000000000000000000090
:10145c000000000000000000000000000000000080
:10146c000000000000000000000000000000000070
:10147c000000000000000000000000000000000060
:10148c000000000000000000000000000000000050
:10149c000000000000000000000000000000000040
:1014ac000000000000000000000000000000000030
:1014bc00020a0000000200000000000000460000cc
:1014cc0000020000000000000044000000020000c8
:1014dc0000000000000a00000200000000000000f4
:0414ec00780b8000f9
:020000040000fa
:1014f0000000fa000080fa00000006000000fa0078
:101500000a21ef0070382100700888008500a900ca
:101510009500a90013e1a8000080fa000000060071
:101520000000fa00001c80000040a1000050a10053
:10153000001c8800001c80000000a1000010a0001a
:10154000001c880000302000401c8800f00f2000a4
:10155000501c8800d0002000101c88000060200073
:10156000201c880000402000301c88008480a900d6
:101570009480a80081e3a8000080fa000000060023
:101580003600f800809fbe00829fbe00849fbe0090
:10159000869fbe000000fa00005080000000e000be
:1015a00006003a00033024000260240021a020003d
:1015b000001020002dfc0700050037000330240038
:1015c0000240240021a020000010200027fc07007a
:1015d000005080000000a200005088008480a90014
:1015e0000080fa004f03be004f02be004f01be0054
:1015f0004f00be003600f900004006007c07fa00ec
:1016000090022000303a8800203a80000060a1005b
:101610000070a100203a8800213a800000fe2f00cf
:1016200000806000203a88004827ef0040a7a9000a
:1016300020002000001688002000200020168800ce
:10164000000c2000000f78002118200081004700c6
:10165000223b2800bf000900b2187800203020008b
:101660000e00400021532800be0009003118780008
:10167000e017b1000048200000004700026b28007e
:10168000be00090032187800e017b10000302400d5
:101690002cfc0700c0302400affb070021182000fd
:1016a0008e8040000e80e800c330240001017800e5
:1016b000800078001e007800aefb07002016800036
:1016c000004078006140600000c0ea0061406000b6
:1016d0000080fb006100600022168000e1ff2f0007
:1016e000810061000100700020168800ebff3700c8
:020000040000fa
:0416f00000000000f6
:020000040000fa
:0200000401f009
:04000000ffff0000fe
:020000040000fa
:0200000401f009
:04000400ffff0000fa
:020000040000fa
:0200000401f009
:04000800ffff0000f6
:020000040000fa
:0200000401f009
:04000c0001000000ef
:020000040000fa
:0200000401f009
:04001000a700000045
:020000040000fa
:0200000401f009
:04001400df00000009
:020000040000fa
:0200000401f009
:04001800f7000000ed
:020000040000fa
:0200000401f009
:04001c00dfff000002
:00000001FF
