:020000040000fa
:080000000002040000000000f2
:020000040000fa
:04000800a80200004a
:020000040000fa
:04000c00a802000046
:020000040000fa
:04001000a802000042
:020000040000fa
:04001400a80200003e
:020000040000fa
:04001800a80200003a
:020000040000fa
:04001c00a802000036
:020000040000fa
:04002000a802000032
:020000040000fa
:04002400a80200002e
:020000040000fa
:04002800a80200002a
:020000040000fa
:04002c00a802000026
:020000040000fa
:04003000a802000022
:020000040000fa
:04003400a80200001e
:020000040000fa
:04003800ec070000d1
:020000040000fa
:04003c00a802000016
:020000040000fa
:04004000a802000012
:020000040000fa
:04004400a80200000e
:020000040000fa
:04004800a80200000a
:020000040000fa
:04004c00a802000006
:020000040000fa
:04005000a802000002
:020000040000fa
:04005400a8020000fe
:020000040000fa
:04005800a8020000fa
:020000040000fa
:04005c00a8020000f6
:020000040000fa
:04006000a8020000f2
:020000040000fa
:04006400a8020000ee
:020000040000fa
:04006800a8020000ea
:020000040000fa
:04006c00a8020000e6
:020000040000fa
:04007000a8020000e2
:020000040000fa
:04007400a8020000de
:020000040000fa
:04007800a8020000da
:020000040000fa
:04007c00a8020000d6
:020000040000fa
:04008000a8020000d2
:020000040000fa
:04008400a8020000ce
:020000040000fa
:04008800a8020000ca
:020000040000fa
:04008c00a8020000c6
:020000040000fa
:04009000a8020000c2
:020000040000fa
:04009400a8020000be
:020000040000fa
:04009800a8020000ba
:020000040000fa
:04009c00a8020000b6
:020000040000fa
:0400a000a8020000b2
:020000040000fa
:0400a400a8020000ae
:020000040000fa
:0400a800a8020000aa
:020000040000fa
:0400ac00a8020000a6
:020000040000fa
:0400b000a8020000a2
:020000040000fa
:0400b400a80200009e
:020000040000fa
:0400b800a80200009a
:020000040000fa
:0400bc00a802000096
:020000040000fa
:0400c000a802000092
:020000040000fa
:0400c400a80200008e
:020000040000fa
:0400c800a80200008a
:020000040000fa
:0400cc00a802000086
:020000040000fa
:0400d000a802000082
:020000040000fa
:0400d400a80200007e
:020000040000fa
:0400d800a80200007a
:020000040000fa
:0400dc00a802000076
:020000040000fa
:0400e000a802000072
:020000040000fa
:0400e400a80200006e
:020000040000fa
:0400e800a80200006a
:020000040000fa
:0400ec00a802000066
:020000040000fa
:0400f000a802000062
:020000040000fa
:0400f400a80200005e
:020000040000fa
:0400f800a80200005a
:020000040000fa
:0400fc00a802000056
:020000040000fa
:04010000a802000051
:020000040000fa
:04010400a80200004d
:020000040000fa
:04010800a802000049
:020000040000fa
:04010c00a802000045
:020000040000fa
:04011000a802000041
:020000040000fa
:04011400a80200003d
:020000040000fa
:04011800a802000039
:020000040000fa
:04011c00a802000035
:020000040000fa
:04012000a802000031
:020000040000fa
:04012400a80200002d
:020000040000fa
:04012800a802000029
:020000040000fa
:04012c00a802000025
:020000040000fa
:04013000a802000021
:020000040000fa
:04013400a80200001d
:020000040000fa
:04013800a802000019
:020000040000fa
:04013c00a802000015
:020000040000fa
:04014000a802000011
:020000040000fa
:04014400a80200000d
:020000040000fa
:04014800a802000009
:020000040000fa
:04014c00a802000005
:020000040000fa
:04015000a802000001
:020000040000fa
:04015400a8020000fd
:020000040000fa
:04015800a8020000f9
:020000040000fa
:04015c00a8020000f5
:020000040000fa
:04016000a8020000f1
:020000040000fa
:04016400a8020000ed
:020000040000fa
:04020800a802000048
:020000040000fa
:04020c00a802000044
:020000040000fa
:04021000a802000040
:020000040000fa
:04021400a80200003c
:020000040000fa
:04021800a802000038
:020000040000fa
:04021c00a802000034
:020000040000fa
:04022000a802000030
:020000040000fa
:04022400a80200002c
:020000040000fa
:04022800a802000028
:020000040000fa
:04022c00a802000024
:020000040000fa
:04023000a802000020
:020000040000fa
:04023400a80200001c
:020000040000fa
:04023800a802000018
:020000040000fa
:04023c00a802000014
:020000040000fa
:04024000a802000010
:020000040000fa
:04024400a80200000c
:020000040000fa
:04024800a802000008
:020000040000fa
:04024c00a802000004
:020000040000fa
:04025000a802000000
:020000040000fa
:04025400a8020000fc
:020000040000fa
:04025800a8020000f8
:020000040000fa
:04025c00a8020000f4
:020000040000fa
:04026000a8020000f0
:020000040000fa
:04026400a8020000ec
:020000040000fa
:04026800a8020000e8
:020000040000fa
:04026c00a8020000e4
:020000040000fa
:04027000a8020000e0
:020000040000fa
:04027400a8020000dc
:020000040000fa
:04027800a8020000d8
:020000040000fa
:04027c00a8020000d4
:020000040000fa
:04028000a8020000d0
:020000040000fa
:04028400a8020000cc
:020000040000fa
:04028800a8020000c8
:020000040000fa
:04028c00a8020000c4
:020000040000fa
:04029000a8020000c0
:020000040000fa
:04029400a8020000bc
:020000040000fa
:04029800a8020000b8
:020000040000fa
:04029c00a8020000b4
:020000040000fa
:0402a000a8020000b0
:020000040000fa
:0402a400a8020000ac
:020000040000fa
:0402a800a8020000a8
:020000040000fa
:0402ac00a8020000a4
:020000040000fa
:0402b000a8020000a0
:020000040000fa
:0402b400a80200009c
:020000040000fa
:0402b800a802000098
:020000040000fa
:0402bc00a802000094
:020000040000fa
:0402c000a802000090
:020000040000fa
:0402c400a80200008c
:020000040000fa
:0402c800a802000088
:020000040000fa
:0402cc00a802000084
:020000040000fa
:0402d000a802000080
:020000040000fa
:0402d400a80200007c
:020000040000fa
:0402d800a802000078
:020000040000fa
:0402dc00a802000074
:020000040000fa
:0402e000a802000070
:020000040000fa
:0402e400a80200006c
:020000040000fa
:0402e800a802000068
:020000040000fa
:0402ec00a802000064
:020000040000fa
:0402f000a802000060
:020000040000fa
:0402f400a80200005c
:020000040000fa
:0402f800a802000058
:020000040000fa
:0402fc00a802000054
:020000040000fa
:04030000a80200004f
:020000040000fa
:04030400a80200004b
:020000040000fa
:04030800a802000047
:020000040000fa
:04030c00a802000043
:020000040000fa
:04031000a80200003f
:020000040000fa
:04031400a80200003b
:020000040000fa
:04031800a802000037
:020000040000fa
:04031c00a802000033
:020000040000fa
:04032000a80200002f
:020000040000fa
:04032400a80200002b
:020000040000fa
:04032800a802000027
:020000040000fa
:04032c00a802000023
:020000040000fa
:04033000a80200001f
:020000040000fa
:04033400a80200001b
:020000040000fa
:04033800a802000017
:020000040000fa
:04033c00a802000013
:020000040000fa
:04034000a80200000f
:020000040000fa
:04034400a80200000b
:020000040000fa
:04034800a802000007
:020000040000fa
:04034c00a802000003
:020000040000fa
:04035000a8020000ff
:020000040000fa
:04035400a8020000fb
:020000040000fa
:04035800a8020000f7
:020000040000fa
:04035c00a8020000f3
:020000040000fa
:04036000a8020000ef
:020000040000fa
:04036400a8020000eb
:020000040000fa
:100400004fa520000e3f24000e01880000000000d0
:10041000000020000000e000020032000001200087
:10042000200288000c000700408a20000100200004
:1004300011000700000020000000e0000200320070
:1004400000000200000000002a0802000000000076
:100450000040da000000fe004440a900c047200030
:100460000000e0000300320000002000a00188002e
:100470004440a80000000600910188008000780038
:100480000000eb0015003700e280400032a0b4000d
:100490009101ba00e280400032a0b4009102ba009b
:1004a000e280400032a0b4000002eb00472bde00e7
:1004b000f507b200602ce10004003a000059eb009f
:1004c0008301e900fdff3e00040037006128e100e0
:1004d000010032000082eb000b00070011c3ba00dc
:1004e0001101ba000604e00003003a000200e00037
:1004f000e5ff3a0000000600f607b200960188000a
:1005000082007800f5ff37003159ba008301e90015
:100510000c0032002159ba008301e90008003200c2
:100520000400e00003003a00e280400032a0b40082
:10053000f5ff370011d9ba008301e900faff3a004c
:100540008100e800e180400032a0b4000000060015
:100550000040da000000fe00889fbe008a9fbe00b7
:100560008c9fbe008e1f78004400f800080f20000a
:10057000280288003400f800811f78000f077800f7
:100580002305900007f02f000a38e1000400320034
:10059000270280004700b30027028800aa018800d4
:1005a00003029000d30490000000e90000800800de
:1005b000150000001304900033059000c30590005f
:1005c000320378009a00ca00b8027800048008005c
:1005d0000a0000005210c4009b80ca008707cd00ab
:1005e0005290c4005290c500ba87cd005390c40009
:1005f0008607cd009a00ca005290c500bb87cd0087
:100600000600ca000900c8003100cd008e0778003e
:100610004f0078003400f9004400f9004f077800db
:100620004f06be004f05be004f04be00000006008e
:10063000b000900040019000000090000080080091
:10064000010000008018eb000019eb00000006001c
:020000040000fa
:100650008f4a0000357900007d7a0000ec4d0000e3
:1006600030040000e3b80000348800005d8400001e
:10067000ccae0000a1f700009843000042760000d5
:10068000a87c0000655400008c0c000000c0000035
:10069000698b00007682000080a800004bef00000c
:1006a000573c0000cd7200004a7e0000825a0000d4
:1006b000da14000063c700001d8f000018810000dd
:1006c00094a2000007e70000d4340000da6e0000b6
:1006d000627f00003c600000111d000004cf00009c
:1006e0004d930000468000000e9d0000dfde0000fc
:1006f000172d00006e6a0000ee7f00008d6500007f
:1007000028250000dbd60000f597000000800000df
:10071000f5970000dbd60000282500008d6500005d
:10072000ee7f00006e6a0000172d0000dfde000083
:100730000e9d0000468000004d93000004cf000095
:10074000111d00003c600000627f0000da6e0000b6
:10075000d434000007e7000094a2000018810000d4
:100760001d8f000063c70000da140000825a0000e9
:100770004a7e0000cd720000573c00004bef0000a5
:1007800080a8000076820000698b000000c0000095
:100790008c0c000065540000a87c0000427600002c
:1007a00098430000a1f70000ccae00005d8400007b
:1007b00034880000e3b8000030040000ec4d000075
:1007c0007d7a0000357900008f4a000000000000ab
:1007d00071b50000cb8600008385000014b20000d4
:1007e000d0fb00001d470000cc770000a37b000079
:1007f000345100005f08000068bc0000be890000a2
:10080000588300009bab000074f300000040000020
:10081000977400008a7d000080570000b51000002a
:10082000a9c30000338d0000b68100007ea5000042
:1008300026eb00009d380000e3700000e87e000019
:100840006c5d0000f91800002ccb00002691000020
:100850009e800000c49f0000efe20000fc3000001a
:10086000b36c0000ba7f0000f2620000212100009a
:10087000e9d200009295000012800000739a0000f7
:10088000d8da0000252900000b680000ff7f000077
:100890000b68000025290000d8da0000739a0000d8
:1008a0001280000092950000e9d200002121000092
:1008b000f2620000ba7f0000b36c0000fc30000060
:1008c000efe20000c49f00009e800000269100001f
:1008d0002ccb0000f91800006c5d0000e87e0000e1
:1008e000e37000009d38000026eb00007ea50000ac
:1008f000b6810000338d0000a9c30000b5100000d0
:10090000805700008a7d00009774000000400000be
:1009100074f300009bab000058830000be89000008
:1009200068bc00005f08000034510000a37b000099
:10093000cc7700001d470000d0fb000014b200007f
:1009400083850000cb86000071b500000000000028
:10095000000000007d070000250c0000360c0000a0
:10096000a807000035000000aff80000ecf300001d
:10097000bbf300002df8000095ff000025070000e4
:10098000020c0000540c0000fd070000a000000055
:1009900008f9000011f400009ef30000d9f70000f0
:1009a0002aff0000cb060000db0b00006f0c0000ec
:1009b000500800000b01000063f900003af4000049
:1009c00085f3000088f70000bffe00006f060000fe
:1009d000b10b0000870c0000a008000076010000a9
:1009e000bff9000065f400006ff3000039f7000064
:1009f00055fe000012060000840b00009b0c000056
:100a0000ee080000e00100001efa000094f400006f
:100a10005cf30000ecf60000ebfd0000b205000006
:100a2000530b0000ac0c00003a0900004a02000021
:100a30007efa0000c6f400004df30000a2f60000ac
:100a400081fd000052050000200b0000b90c0000e1
:100a500083090000b3020000dffa0000fbf400008d
:100a600041f300005af6000018fd0000ef040000fa
:100a7000e90a0000c30c0000c90900001c030000c3
:100a800042fb000033f5000039f3000015f60000ca
:100a9000b0fc00008c040000b00a0000c90c00008b
:100aa0000d0a000083030000a6fb00006ef50000a5
:100ab00035f30000d2f5000049fc000027040000d7
:100ac000730a0000cc0c00004e0a0000ea0300008c
:100ad0000cfc0000acf5000034f3000093f50000be
:100ae000e3fb0000c1030000340a0000cb0c00004f
:100af0008c0a00004f04000072fc0000edf50000bd
:100b000036f3000056f500007efb00005a0300009b
:100b1000f2090000c70c0000c70a0000b40400007e
:100b2000dafc000030f600003cf300001cf5000089
:100b30001bfb0000f2020000ad090000bf0c00002a
:100b4000000b00001705000042fd000076f60000d3
:100b500046f30000e5f40000b8fa00008902000046
:100b600066090000b40c0000350b00007805000099
:100b7000abfd0000bff6000053f30000b2f400002c
:100b800057fa0000200200001c090000a60c00001b
:100b9000670b0000d905000015fe00000af70000f1
:100ba00063f3000081f40000f8f90000b6010000d2
:100bb000cf080000930c0000960b000037060000e1
:100bc0007ffe000058f7000077f3000053f40000a8
:100bd0009af900004b010000800800007e0c000024
:100be000c20b000094060000eafe0000a8f7000017
:100bf0008ef3000029f400003ef90000e10000003f
:100c00002f080000650c0000eb0b0000ef06000051
:100c100055ff0000fbf70000a9f3000002f40000fc
:100c2000e4f8000075000000db070000480c00003d
:100c3000100c000048070000c0ff00004ff8000043
:100c4000c7f30000def300008cf800000000000095
:100c50007d070000250c0000360c0000a8070000ee
:100c600035000000aff80000ecf30000bbf300001b
:100c70002df8000095ff000025070000020c000081
:100c8000540c0000fd070000a000000008f900005f
:100c900011f400009ef30000d9f700002aff0000c5
:100ca000cb060000db0b00006f0c000050080000ba
:100cb0000b01000063f900003af4000085f3000026
:100cc00088f70000bffe00006f060000b10b0000b7
:100cd000870c0000a008000076010000bff90000aa
:100ce00065f400006ff3000039f7000055fe0000c6
:100cf00012060000840b00009b0c0000ee080000b0
:100d0000e00100001efa000094f400005cf3000013
:100d1000ecf60000ebfd0000b2050000530b0000f4
:100d2000ac0c00003a0900004a0200007efa000004
:100d3000c6f400004df30000a2f6000081fd0000a3
:100d400052050000200b0000b90c000083090000d0
:100d5000b3020000dffa0000fbf4000041f30000e2
:100d60005af6000018fd0000ef040000e90a000038
:100d7000c30c0000c90900001c03000042fb000076
:100d800033f5000039f3000015f60000b0fc000058
:100d90008c040000b00a0000c90c00000d0a00001d
:100da00083030000a6fb00006ef5000035f3000091
:100db000d2f5000049fc000027040000730a00007f
:100dc000cc0c00004e0a0000ea0300000cfc0000fe
:100dd000acf5000034f3000093f50000e3fb0000e5
:100de000c1030000340a0000cb0c00008c0a000094
:100df0004f04000072fc0000edf5000036f3000027
:100e000056f500007efb00005a030000f2090000c6
:100e1000c70c0000c70a0000b4040000dafc0000a0
:100e200030f600003cf300001cf500001bfb000046
:100e3000f2020000ad090000bf0c0000000b000032
:100e40001705000042fd000076f6000046f30000a2
:100e5000e5f40000b8fa000089020000660900000d
:100e6000b40c0000350b000078050000abfd00005d
:100e7000bff6000053f30000b2f4000057fa000080
:100e8000200200001c090000a60c0000670b0000f7
:100e9000d905000015fe00000af7000063f300000a
:100ea00081f40000f8f90000b6010000cf0800004e
:100eb000930c0000960b0000370600007ffe000038
:100ec00058f7000077f3000053f400009af900008f
:100ed0004b010000800800007e0c0000c20b0000e7
:100ee00094060000eafe0000a8f700008ef3000060
:100ef00029f400003ef90000e10000002f08000086
:100f0000650c0000eb0b0000ef06000055ff000031
:100f1000fbf70000a9f3000002f40000e4f8000071
:100f200075000000db070000480c0000100c0000fa
:100f300048070000c0ff00004ff80000c7f30000a2
:080f4000def300008cf8000054
:020000040000fa
:100f48000000fa000080fa00000006000000fa0025
:100f58000a21ef0070382100700888008500a90078
:100f68009500a90013e1a8000080fa00000006001f
:100f78000000fa00001c80000040a1000050a10001
:100f8800001c8800001c80000000a1000010a000c8
:100f9800001c880000302000401c8800f00f200052
:100fa800501c8800d0002000101c88000060200021
:100fb800201c880000402000301c88008480a90084
:100fc8009480a80081e3a8000080fa0000000600d1
:100fd8003600f800809fbe00829fbe00849fbe003e
:100fe800869fbe000000fa00904180000000e000eb
:100ff80006003a0083a420000260240041832000f8
:101008000010200052fd07000500370083a42000cf
:101018000240240041832000001020004cfd0700fe
:10102800904180000000a200904188008480a900bf
:101038000080fa004f03be004f02be004f01be0001
:101048004f00be003600f90000400600fc05fa001b
:1010580090022000303a8800203a80000060a10009
:101068000070a100203a8800213a800000fe2f007d
:1010780000806000203a8800b0032000403a8800d1
:1010880040a7a900200020000016880020002000aa
:1010980020168800c222ef000118200081004700b6
:1010a80082322800bf000900b21878000030200002
:1010b8000e004000814a2800be000900311878005f
:1010c800e017b100e04720000000470062622800f6
:1010d800be00090032187800e017b1002016800021
:1010e800004078006140600000c0ea006140600094
:1010f8000080fb006100600022168000e1ff2f00e5
:101108008100610001007000201688002016800010
:10111800004078006140600000c0ea006140600063
:101128000080fb006100600022168000e1ff2f00b4
:10113800810061000100700020168800e7ff370079
:020000040000fa
:10114800480a00000c000000020000000400000033
:101158000800ff00340a3e000a00000000080000f2
:1011680032000000020000009223ff00b85f3d003b
:1011780092233900efbb2f00f2a19d0057bb2f002f
:1011880017da180038449300f9681800380dcc00b5
:10119800513c80008c507100513c2e00c5733e00bc
:1011a8002089830075733e0075c10000340a000071
:1011b8001400000002000000000000000000000011
:1011c8000000000000000000000000000000000017
:1011d80000000000340800000002000000000000c9
:1011e800004600000002000000000000004400006b
:1011f80000020000000000003208000002000000a9
:0812080000000000080980004d
:020000040000fa
:0412100000000000da
:020000040000fa
:0200000401f009
:04000000ffff0000fe
:020000040000fa
:0200000401f009
:04000400ffff0000fa
:020000040000fa
:0200000401f009
:04000800ffff0000f6
:020000040000fa
:0200000401f009
:04000c008700000069
:020000040000fa
:0200000401f009
:04001000a700000045
:020000040000fa
:0200000401f009
:04001400df00000009
:020000040000fa
:0200000401f009
:04001800f7000000ed
:020000040000fa
:0200000401f009
:04001c00dfff000002
:00000001FF
