:020000040000fa
:080000000002040000000000f2
:020000040000fa
:04000800a80200004a
:020000040000fa
:04000c00a802000046
:020000040000fa
:04001000a802000042
:020000040000fa
:04001400a80200003e
:020000040000fa
:04001800a80200003a
:020000040000fa
:04001c00a802000036
:020000040000fa
:04002000a802000032
:020000040000fa
:04002400a80200002e
:020000040000fa
:04002800a80200002a
:020000040000fa
:04002c00a802000026
:020000040000fa
:04003000a802000022
:020000040000fa
:04003400a80200001e
:020000040000fa
:04003800e00a0000da
:020000040000fa
:04003c00a802000016
:020000040000fa
:04004000a802000012
:020000040000fa
:04004400a80200000e
:020000040000fa
:04004800a80200000a
:020000040000fa
:04004c00a802000006
:020000040000fa
:04005000a802000002
:020000040000fa
:04005400a8020000fe
:020000040000fa
:04005800a8020000fa
:020000040000fa
:04005c00a8020000f6
:020000040000fa
:04006000a8020000f2
:020000040000fa
:04006400a8020000ee
:020000040000fa
:04006800a8020000ea
:020000040000fa
:04006c00a8020000e6
:020000040000fa
:04007000a8020000e2
:020000040000fa
:04007400a8020000de
:020000040000fa
:04007800a8020000da
:020000040000fa
:04007c00a8020000d6
:020000040000fa
:04008000a8020000d2
:020000040000fa
:04008400a8020000ce
:020000040000fa
:04008800a8020000ca
:020000040000fa
:04008c00a8020000c6
:020000040000fa
:04009000a8020000c2
:020000040000fa
:04009400a8020000be
:020000040000fa
:04009800a8020000ba
:020000040000fa
:04009c00a8020000b6
:020000040000fa
:0400a000a8020000b2
:020000040000fa
:0400a400a8020000ae
:020000040000fa
:0400a800a8020000aa
:020000040000fa
:0400ac00a8020000a6
:020000040000fa
:0400b000a8020000a2
:020000040000fa
:0400b400a80200009e
:020000040000fa
:0400b800a80200009a
:020000040000fa
:0400bc00a802000096
:020000040000fa
:0400c000a802000092
:020000040000fa
:0400c400a80200008e
:020000040000fa
:0400c800a80200008a
:020000040000fa
:0400cc00a802000086
:020000040000fa
:0400d000a802000082
:020000040000fa
:0400d400a80200007e
:020000040000fa
:0400d800a80200007a
:020000040000fa
:0400dc00a802000076
:020000040000fa
:0400e000a802000072
:020000040000fa
:0400e400a80200006e
:020000040000fa
:0400e800a80200006a
:020000040000fa
:0400ec00a802000066
:020000040000fa
:0400f000a802000062
:020000040000fa
:0400f400a80200005e
:020000040000fa
:0400f800a80200005a
:020000040000fa
:0400fc00a802000056
:020000040000fa
:04010000a802000051
:020000040000fa
:04010400a80200004d
:020000040000fa
:04010800a802000049
:020000040000fa
:04010c00a802000045
:020000040000fa
:04011000a802000041
:020000040000fa
:04011400a80200003d
:020000040000fa
:04011800a802000039
:020000040000fa
:04011c00a802000035
:020000040000fa
:04012000a802000031
:020000040000fa
:04012400a80200002d
:020000040000fa
:04012800a802000029
:020000040000fa
:04012c00a802000025
:020000040000fa
:04013000a802000021
:020000040000fa
:04013400a80200001d
:020000040000fa
:04013800a802000019
:020000040000fa
:04013c00a802000015
:020000040000fa
:04014000a802000011
:020000040000fa
:04014400a80200000d
:020000040000fa
:04014800a802000009
:020000040000fa
:04014c00a802000005
:020000040000fa
:04015000a802000001
:020000040000fa
:04015400a8020000fd
:020000040000fa
:04015800a8020000f9
:020000040000fa
:04015c00a8020000f5
:020000040000fa
:04016000a8020000f1
:020000040000fa
:04016400a8020000ed
:020000040000fa
:04020800a802000048
:020000040000fa
:04020c00a802000044
:020000040000fa
:04021000a802000040
:020000040000fa
:04021400a80200003c
:020000040000fa
:04021800a802000038
:020000040000fa
:04021c00a802000034
:020000040000fa
:04022000a802000030
:020000040000fa
:04022400a80200002c
:020000040000fa
:04022800a802000028
:020000040000fa
:04022c00a802000024
:020000040000fa
:04023000a802000020
:020000040000fa
:04023400a80200001c
:020000040000fa
:04023800a802000018
:020000040000fa
:04023c00a802000014
:020000040000fa
:04024000a802000010
:020000040000fa
:04024400a80200000c
:020000040000fa
:04024800a802000008
:020000040000fa
:04024c00a802000004
:020000040000fa
:04025000a802000000
:020000040000fa
:04025400a8020000fc
:020000040000fa
:04025800a8020000f8
:020000040000fa
:04025c00a8020000f4
:020000040000fa
:04026000a8020000f0
:020000040000fa
:04026400a8020000ec
:020000040000fa
:04026800a8020000e8
:020000040000fa
:04026c00a8020000e4
:020000040000fa
:04027000a8020000e0
:020000040000fa
:04027400a8020000dc
:020000040000fa
:04027800a8020000d8
:020000040000fa
:04027c00a8020000d4
:020000040000fa
:04028000a8020000d0
:020000040000fa
:04028400a8020000cc
:020000040000fa
:04028800a8020000c8
:020000040000fa
:04028c00a8020000c4
:020000040000fa
:04029000a8020000c0
:020000040000fa
:04029400a8020000bc
:020000040000fa
:04029800a8020000b8
:020000040000fa
:04029c00a8020000b4
:020000040000fa
:0402a000a8020000b0
:020000040000fa
:0402a400a8020000ac
:020000040000fa
:0402a800a8020000a8
:020000040000fa
:0402ac00a8020000a4
:020000040000fa
:0402b000a8020000a0
:020000040000fa
:0402b400a80200009c
:020000040000fa
:0402b800a802000098
:020000040000fa
:0402bc00a802000094
:020000040000fa
:0402c000a802000090
:020000040000fa
:0402c400a80200008c
:020000040000fa
:0402c800a802000088
:020000040000fa
:0402cc00a802000084
:020000040000fa
:0402d000a802000080
:020000040000fa
:0402d400a80200007c
:020000040000fa
:0402d800a802000078
:020000040000fa
:0402dc00a802000074
:020000040000fa
:0402e000a802000070
:020000040000fa
:0402e400a80200006c
:020000040000fa
:0402e800a802000068
:020000040000fa
:0402ec00a802000064
:020000040000fa
:0402f000a802000060
:020000040000fa
:0402f400a80200005c
:020000040000fa
:0402f800a802000058
:020000040000fa
:0402fc00a802000054
:020000040000fa
:04030000a80200004f
:020000040000fa
:04030400a80200004b
:020000040000fa
:04030800a802000047
:020000040000fa
:04030c00a802000043
:020000040000fa
:04031000a80200003f
:020000040000fa
:04031400a80200003b
:020000040000fa
:04031800a802000037
:020000040000fa
:04031c00a802000033
:020000040000fa
:04032000a80200002f
:020000040000fa
:04032400a80200002b
:020000040000fa
:04032800a802000027
:020000040000fa
:04032c00a802000023
:020000040000fa
:04033000a80200001f
:020000040000fa
:04033400a80200001b
:020000040000fa
:04033800a802000017
:020000040000fa
:04033c00a802000013
:020000040000fa
:04034000a80200000f
:020000040000fa
:04034400a80200000b
:020000040000fa
:04034800a802000007
:020000040000fa
:04034c00a802000003
:020000040000fa
:04035000a8020000ff
:020000040000fa
:04035400a8020000fb
:020000040000fa
:04035800a8020000f7
:020000040000fa
:04035c00a8020000f3
:020000040000fa
:04036000a8020000ef
:020000040000fa
:04036400a8020000eb
:020000040000fa
:10040000efef20000e1f24000e0188000000000006
:10041000000020000000e000020032000001200087
:10042000200288000c0007008058200001002000f6
:1004300011000700000020000000e0000200320070
:1004400000000200000000001e0b0200000000007f
:100450000040da000000fe004440a900001820001f
:100460000000e0000300320000002000a00188002e
:100470004440a80000000600910188008000780038
:100480000000eb0015003700e280400032a0b4000d
:100490009101ba00e280400032a0b4009102ba009b
:1004a000e280400032a0b4000002eb00472bde00e7
:1004b000f507b200602ce10004003a000059eb009f
:1004c0008301e900fdff3e00040037006128e100e0
:1004d000010032000082eb000b00070011c3ba00dc
:1004e0001101ba000604e00003003a000200e00037
:1004f000e5ff3a0000000600f607b200960188000a
:1005000082007800f5ff37003159ba008301e90015
:100510000c0032002159ba008301e90008003200c2
:100520000400e00003003a00e280400032a0b40082
:10053000f5ff370011d9ba008301e900faff3a004c
:100540008100e800e180400032a0b4000000060015
:100550000040da000000fe004400f800040f200014
:1005600024028800811f78000000e900030278005f
:100570000080080002000000b20278001301c000f1
:100580003100cd004f0078004400f9000000060063
:100590004400f800040f20002402880001027800c3
:1005a0000000e9000080080004000000b2027800aa
:1005b0000500ca00b30278000500c9003100cc0074
:1005c000040078004400f900000006004400f80030
:1005d000040f200024028800811f78000000e90039
:1005e000008008000300000032027800b3027800a7
:1005f0001301c0003100cd004f0078004400f90025
:1006000000000600800090000101e900c000900099
:100610000000200002800900801878000000060019
:10062000889fbe008a9fbe008c9fbe008e1f7800f0
:100630004400f800080f2000280288003400f80069
:100640004600f8004800f8004a00f8004c00f800a6
:100650004e00f8008a0a2c003a0288002304900019
:100660005802880013049000480288005305900047
:100670007a028800430590006a028800811f780092
:100680000f0778003305900007f02f000a38e100cb
:1006900004003200270280004700b30027028800d0
:1006a000aa018800630590000302900063025200d3
:1006b0000000e9000080080007000000320d78000b
:1006c000000000004618c300048009004618c4005a
:1006d0004218c4001201c4003100cd00ea019800a4
:1006e0008e0778004f0078004e00f9004c00f900aa
:1006f0004a00f9004800f9004600f9003400f9000a
:100700004400f9004f0778004f06be004f05be00b9
:100710004f04be0000000600889fbe008a9fbe00f6
:100720008c9fbe008e1f78004400f800080f200048
:10073000280288003400f800811f78000f07780035
:100740002305900007f02f000a38e1000400320072
:10075000270280004700b30027028800aa01880012
:1007600003029000d30490000000e900008008001c
:10077000150000001304900033059000c30590009d
:10078000320378009a00ca00b8027800048008009a
:100790000a0000005210c4009b80ca008707cd00e9
:1007a0005290c4005290c500ba87cd005390c40047
:1007b0008607cd009a00ca005290c500bb87cd00c5
:1007c0000600ca000900c8003100cd008e0778007d
:1007d0004f0078003400f9004400f9004f0778001a
:1007e0004f06be004f05be004f04be0000000600cd
:1007f000b0009000400190000000900000800800d0
:10080000010000008018eb000019eb00000006005a
:020000040000fa
:100810005a0f00003d1d0000ea0d0000a625000053
:10082000711300009b0d000060fd0000edeb000067
:10083000b9e800009cf40000bae00000780b00006a
:1008400002020000ce0c000061fe00000ff8000064
:1008500008cf0000e2d20000fcdf000036f4000008
:10086000bf140000e30d00003b330000d12a00005c
:100870001c32000032160000a6fb0000e9e1000077
:1008800041f50000f0fe0000c0f00000b4f20000ee
:10089000f7fa00005eee00009cf30000e8f00000b4
:1008a000fdec00008be7000084f500004ef700002f
:1008b000f92100001c190000463d00006a180000e4
:1008c0007d28000018100000010f0000c800000083
:1008d00033ca0000c8d500009fd70000bffc00004d
:1008e000dd140000b2fa0000940b0000a801000023
:1008f00015e10000eff4000001e400005d110000cc
:100900005a050000132f0000ac180000722d0000e3
:10091000611e000071f2000060f30000f3fd0000b2
:1009200070e80000aed3000060df0000dbf50000df
:100930007cea0000a11000006cf70000fe1b000024
:1009400052e700000bf8000056dc0000a2ef0000a8
:10095000f5fc00001c1a00004e2d0000d2260000fd
:100960007c170000e71e0000380e0000ecf20000cb
:10097000beee000023e8000012d50000e5fa0000fa
:10098000cdee00006cf8000005090000b7ff000084
:10099000d9fd0000fb040000f30a00007ffa00000c
:1009a000d30b00009c0d0000921e0000c825000023
:1009b0008310000086130000a1080000eaef000089
:1009c000a8fe000027d400000bd60000e3cf0000f3
:1009d00039080000b61200008a090000df19000083
:1009e0000f0a000045060000f7ff00007606000031
:1009f000f8060000b33b00005e030000cefb0000e1
:100a00000e04000035fa000086f50000d0e9000071
:100a100008dd000002e50000bfe60000e1f700008d
:100a200023170000561b0000c9fa00008ceb0000e1
:100a30007a1c00004ae90000c40200008d0000009a
:100a400079270000af080000960800006a1800002f
:100a5000241600000e0a0000dcf00000b6d70000eb
:100a600044e50000e0c5000055cf0000b4010000df
:100a7000cbf40000300800002423000085120000a1
:100a80008e24000083060000df140000020a00002c
:100a900086fc000058f6000074f90000030a00000c
:100aa0002206000040ff0000af09000005e700003b
:100ab000b6f3000044d400003af10000dce400008a
:100ac0008e0000006c1d0000f711000051150000a1
:100ad00076390000861f0000f9fe00003109000091
:100ae00032f60000f7090000a81a0000c8ed000067
:100af0003d190000211b000019fa0000cf09000079
:100b0000fce5000063cb000000c000002cea000000
:020000040000fa
:100b1000020a0000fc0200000200000000007d004c
:100b200007250c00360ca80007350000aff8ec00d4
:100b3000f3bbf3002df89500ff250700020c5400cd
:100b40000cfd0700a0000800f911f4009ef3d90085
:100b5000f72aff00cb06db000b6f0c0050080b00e0
:100b60000163f9003af48500f388f700bffe6f00d7
:100b700006b10b00870ca00008760100bff96500e4
:100b8000f46ff30039f75500fe120600840b9b004a
:100b90000cee0800e0011e00fa94f4005cf3ec0097
:100ba000f6ebfd00b20553000bac0c003a094a000d
:100bb000027efa00c6f44d00f3a2f60081fd520059
:100bc00005200b00b90c830009b30200dffafb001b
:100bd000f441f3005af61800fdef0400e90ac300df
:100be0000cc909001c034200fb33f50039f3150062
:100bf000f6b0fc008c04b0000ac90c000d0a83009a
:100c000003a6fb006ef53500f3d2f50049fc270082
:100c100004730a00cc0c4e000aea03000cfcac0082
:100c2000f534f30093f5e300fbc10300340acb0075
:100c30000c8c0a004f047200fcedf50036f35600f0
:100c4000f57efb005a03f20009c70c00c70ab40086
:100c500004dafc0030f63c00f31cf5001bfbf2004c
:100c600002ad0900bf0c00000b17050042fd760025
:100c7000f646f300e5f4b800fa8902006609b4000c
:100c80000c350b007805ab00fdbff60053f3b20046
:100c9000f457fa0020021c0009a60c00670bd900cb
:100ca0000515fe000af76300f381f400f8f9b600b9
:100cb00001cf0800930c96000b3706007ffe58000a
:100cc000f777f30053f49a00f94b010080087e0097
:100cd0000cc20b009406ea00fea8f7008ef3290070
:100ce000f43ef900e1002f0008650c00eb0bef006b
:100cf0000655ff00fbf7a900f302f400e4f87500c5
:100d000000db0700480c10000c480700c0ff4f0034
:100d1000f8c7f300def38c00f80000007d07250023
:100d20000c360c00a807350000aff800ecf3bb0050
:100d3000f32df80095ff250007020c00540cfd0070
:100d400007a0000008f91100f49ef300d9f72a006b
:100d5000ffcb0600db0b6f000c5008000b0163009b
:100d6000f93af40085f38800f7bffe006f06b10082
:100d70000b870c00a008760001bff90065f46f0036
:100d8000f339f70055fe120006840b009b0cee00b1
:100d900008e001001efa9400f45cf300ecf6eb00ae
:100da000fdb20500530bac000c3a09004a027e006c
:100db000fac6f4004df3a200f681fd0052052000b2
:100dc0000bb90c008309b30002dffa00fbf4410009
:100dd000f35af60018fdef0004e90a00c30cc9003d
:100de000091c030042fb3300f539f30015f6b0008f
:100df000fc8c0400b00ac9000c0d0a008303a60095
:100e0000fb6ef50035f3d200f549fc0027047300b2
:100e10000acc0c004e0aea00030cfc00acf53400ce
:100e2000f393f500e3fbc10003340a00cb0c8c0004
:100e30000a4f040072fced00f536f30056f57e0013
:100e4000fb5a0300f209c7000cc70a00b404da0019
:100e5000fc30f6003cf31c00f51bfb00f202ad0079
:100e600009bf0c00000b17000542fd0076f6460096
:100e7000f3e5f400b8fa890002660900b40c350005
:100e80000b780500abfdbf00f653f300b2f457003a
:100e9000fa2002001c09a6000c670b00d9051500fa
:100ea000fe0af70063f38100f4f8f900b601cf0001
:100eb00008930c00960b3700067ffe0058f777006a
:100ec000f353f4009af94b00018008007e0cc20035
:100ed0000b940600eafea800f78ef30029f43e000a
:100ee000f9e100002f0865000ceb0b00ef06550040
:100ef000fffbf700a9f30200f4e4f8007500db0043
:100f000007480c00100c480007c0ff004ff8c7004e
:100f1000f3def3008cf80000004300001a0000002c
:100f200002000000000000000800ff001a431c003f
:100f300043000000130000000925090000ff000025
:100f400042254200004200000008000000020000ac
:100f5000020000005e270000c0d19a005e277c00de
:100f60003c00000000000000000000000000000045
:100f70000000000000000000000000000000000071
:100f80000000000000000000000000000000000061
:100f90000000000000000000000000000000000051
:100fa0000000000000000000000000000000000041
:100fb0000000000000000000000000000000000031
:100fc0000000000000000000000000000000000021
:100fd0000000000000000000000000000000000011
:100fe0000000000000000000000000000000000001
:100ff00000000000000000000000000000000000f1
:1010000000000000000000000000000000000000e0
:1010100000000000000000000000000000000000d0
:1010200000000000000000000000000000000000c0
:1010300000000000000000000000000000000000b0
:1010400000000000000000000000000000000000a0
:101050000000000000000000000000000000000090
:101060000000000000000000000000000000000080
:101070000000000000000000000000000000000070
:101080000000000000000000000000000000000060
:101090000000000000000000000000000000000050
:1010a0000000000000000000008b1b0075f25300e0
:1010b000e789ea00550253001ea32400970b1b008a
:1010c000e66314001be697000ba32400531e550093
:1010d0000289ea0053e77500f28b1b000000000054
:1010e0000000000000000000000000000000000000
:1010f00000000000000000000000000000000000f0
:1011000000000000000000000000000000000000df
:1011100000000000000000000000000000000000cf
:1011200000000000000000000000000000000000bf
:1011300000000000000000000000000000000000af
:10114000000000000000000000000000000000009f
:10115000000000000000000000000000000000008f
:10116000000000000000000000000000000000007f
:10117000000000000000000000000000000000006f
:10118000000000000000000000000000000000005f
:10119000000000000000000000000000000000004f
:1011a000000000000000000000000000000000003f
:1011b000000000000000000000000000000000002f
:1011c000000000000000000000000000000000001f
:1011d000000000000000000000000000000000000f
:1011e00000000000000000000000000000000000ff
:1011f00000000000000000000000000000000000ef
:101200001a4300000400000002000000000000007b
:101210000000000000420000000100000200000089
:1012200000000000000000000000000000000000be
:1012300000000000000000000000000000000000ae
:10124000000000000000000000000000000000009e
:10125000000000000000000000000000000000008e
:10126000000000000000000000000000000000007e
:10127000000000000000000000000000000000006e
:10128000000000000000000000000000000000005e
:10129000000000000000000000000000000000004e
:1012a000000000000000000000000000000000003e
:1012b000000000000000000000000000000000002e
:1012c000000000000000000000000000000000001e
:1012d000000000000000000000000000000000000e
:1012e00000000000000000000000000000000000fe
:1012f00000000000000000000000000000000000ee
:1013000000000000000000000000000000000000dd
:1013100000000000000000000000000000000000cd
:1013200000000000000000000000000000000000bd
:1013300000000000000000000000000000000000ad
:10134000000000000000000000000000000000009d
:10135000000000000000000000000000000000008d
:10136000000000000000000000000000000000007d
:101370000000000000000000fe0c00000002000061
:101380000000000000460000000200000000000015
:10139000004400000002000000000000000a0000fd
:0c13a00002000000000000009e0b800016
:020000040000fa
:1013ac001400fa00889fbe0060079800710798002f
:1013bc00020f9800130f98000f0478000f007800ac
:1013cc00800478006e0090008000e900010f780026
:1013dc00000040000000e8000000e8000000d10020
:1013ec00800040000f007800818747000000e80073
:1013fc000000d10000004000100798006e00900023
:10140c008000e90021079800000040000000e8007f
:10141c000000e8000000d100800040000f007800c0
:10142c00818747000000e8000000d1000000400068
:10143c00300798006e0090008000e900410798008a
:10144c00000040000000e8000000e8000000d100af
:10145c00800040000f007800818747000000e80002
:10146c000000d10000004000500798001e009000c2
:10147c009e0990000e099000800078006e0090008c
:10148c0040fc07003e0090008081eb001e0990009c
:10149c00800078006e0090002cfc07003e0090004d
:1014ac009e0990000e099000800078006e0090005c
:1014bc0034fc07003e019000015c80003e0090006f
:1014cc008201780001017800800078006e009000a5
:1014dc003bfc07003e0190009e0090005e009000d7
:1014ec008201780001017800800078006e00900085
:1014fc0024fc0700de009000105080008101780071
:10150c0000017800fe0090006e0090001dfc0700aa
:10151c0089077800880778004f04be000080fa0025
:10152c00000006000000fa000080fa00000006002f
:10153c000000fa000a21ef007038210070088800c2
:10154c008500a9009500a90013e1a8000080fa000d
:10155c00000006000000fa00001c80000040a10002
:10156c000050a100001c8800001c80000000a1009d
:10157c000010a000001c880000302000401c8800d7
:10158c00f00f2000501c8800d0002000101c880098
:10159c0000602000201c880000402000301c8800c7
:1015ac008480a9009480a80081e3a8000080fa0040
:1015bc00000006003600f800809fbe00829fbe002f
:1015cc00849fbe00869fbe000000fa000050800081
:1015dc000000e00006003a00033024000260240002
:1015ec00e1cf20000010200048fc07000500370068
:1015fc000330240002402400e1cf20000010200022
:10160c0042fc0700005080000000a200005088003f
:10161c008480a9000080fa004f03be004f02be0078
:10162c004f01be004f00be003600f900004006001e
:10163c000003fa002b00070001182000810047006e
:10164c0082402800bf000900b2187800c030240086
:10165c00e9fb0700001820000e004000c3302400f6
:10166c00000178008e007800000c2000e9fb0700d8
:10167c00001820000e004000c33024000001780048
:10168c008e007800000c2000e2fb070001182000ff
:10169c008e804000001820000e0040008101780070
:1016ac00000178008e007800000c20003cff070041
:1016bc0020168000004078006140600000c0ea0005
:1016cc00614060000080fb00610060002216800019
:1016dc00e1ff2f00810061000100700020168800de
:1016ec00dcff37000000fa0090022000303a88003e
:1016fc00203a80000060a1000070a100203a880010
:10170c00213a800000fe2f0000806000203a880003
:10171c004827ef0040a7a9002000200000168800f1
:10172c0020002000201688000080fa00000006002f
:020000040000fa
:04173c0000000000a9
:020000040000fa
:0200000401f009
:04000000ffff0000fe
:020000040000fa
:0200000401f009
:04000400ffff0000fa
:020000040000fa
:0200000401f009
:04000800ffff0000f6
:020000040000fa
:0200000401f009
:04000c0001000000ef
:020000040000fa
:0200000401f009
:04001000a700000045
:020000040000fa
:0200000401f009
:04001400df00000009
:020000040000fa
:0200000401f009
:04001800f7000000ed
:020000040000fa
:0200000401f009
:04001c00dfff000002
:00000001FF
